{"abi":[{"type":"constructor","inputs":[{"name":"_router","type":"address","internalType":"address"},{"name":"_link","type":"address","internalType":"address"}],"stateMutability":"nonpayable"},{"type":"function","name":"acceptOwnership","inputs":[],"outputs":[],"stateMutability":"nonpayable"},{"type":"function","name":"allowlistDestinationChain","inputs":[{"name":"_destinationChainSelector","type":"uint64","internalType":"uint64"},{"name":"allowed","type":"bool","internalType":"bool"}],"outputs":[],"stateMutability":"nonpayable"},{"type":"function","name":"allowlistedDestinationChains","inputs":[{"name":"","type":"uint64","internalType":"uint64"}],"outputs":[{"name":"","type":"bool","internalType":"bool"}],"stateMutability":"view"},{"type":"function","name":"owner","inputs":[],"outputs":[{"name":"","type":"address","internalType":"address"}],"stateMutability":"view"},{"type":"function","name":"sendMessagePayLINK","inputs":[{"name":"_destinationChainSelector","type":"uint64","internalType":"uint64"},{"name":"_receiver","type":"address","internalType":"address"},{"name":"_iterations","type":"uint256","internalType":"uint256"},{"name":"_gasLimit","type":"uint256","internalType":"uint256"}],"outputs":[{"name":"messageId","type":"bytes32","internalType":"bytes32"}],"stateMutability":"nonpayable"},{"type":"function","name":"transferOwnership","inputs":[{"name":"to","type":"address","internalType":"address"}],"outputs":[],"stateMutability":"nonpayable"},{"type":"event","name":"MessageSent","inputs":[{"name":"messageId","type":"bytes32","indexed":true,"internalType":"bytes32"},{"name":"destinationChainSelector","type":"uint64","indexed":true,"internalType":"uint64"},{"name":"receiver","type":"address","indexed":false,"internalType":"address"},{"name":"iterations","type":"uint256","indexed":false,"internalType":"uint256"},{"name":"feeToken","type":"address","indexed":false,"internalType":"address"},{"name":"fees","type":"uint256","indexed":false,"internalType":"uint256"}],"anonymous":false},{"type":"event","name":"OwnershipTransferRequested","inputs":[{"name":"from","type":"address","indexed":true,"internalType":"address"},{"name":"to","type":"address","indexed":true,"internalType":"address"}],"anonymous":false},{"type":"event","name":"OwnershipTransferred","inputs":[{"name":"from","type":"address","indexed":true,"internalType":"address"},{"name":"to","type":"address","indexed":true,"internalType":"address"}],"anonymous":false},{"type":"error","name":"DestinationChainNotAllowlisted","inputs":[{"name":"destinationChainSelector","type":"uint64","internalType":"uint64"}]},{"type":"error","name":"InvalidReceiverAddress","inputs":[]}],"bytecode":{"object":"0x608060405234801561001057600080fd5b50604051610de2380380610de283398101604081905261002f916101b1565b33806000816100855760405162461bcd60e51b815260206004820152601860248201527f43616e6e6f7420736574206f776e657220746f207a65726f000000000000000060448201526064015b60405180910390fd5b600080546001600160a01b0319166001600160a01b03848116919091179091558116156100b5576100b5816100ec565b5050600380546001600160a01b039384166001600160a01b03199182161790915560048054949093169316929092179055506101e4565b336001600160a01b038216036101445760405162461bcd60e51b815260206004820152601760248201527f43616e6e6f74207472616e7366657220746f2073656c66000000000000000000604482015260640161007c565b600180546001600160a01b0319166001600160a01b0383811691821790925560008054604051929316917fed8889f560326eb138920d842192f0eb3dd22b4f139c87a2c57538e05bae12789190a350565b80516001600160a01b03811681146101ac57600080fd5b919050565b600080604083850312156101c457600080fd5b6101cd83610195565b91506101db60208401610195565b90509250929050565b610bef806101f36000396000f3fe608060405234801561001057600080fd5b50600436106100625760003560e01c80637361d6611461006757806375c67c661461008d57806379ba5097146100c05780638da5cb5b146100ca57806396d3b83d146100e5578063f2fde38b146100f8575b600080fd5b61007a610075366004610966565b61010b565b6040519081526020015b60405180910390f35b6100b061009b3660046109a8565b60026020526000908152604090205460ff1681565b6040519015158152602001610084565b6100c861047b565b005b6000546040516001600160a01b039091168152602001610084565b6100c86100f33660046109d8565b610525565b6100c8610106366004610a0f565b610559565b600061011561056d565b67ffffffffffffffff8516600090815260026020526040902054859060ff1661016257604051630a503cdb60e01b815267ffffffffffffffff821660048201526024015b60405180910390fd5b846001600160a01b03811661018a5760405163502ffa3f60e11b815260040160405180910390fd5b6040805160a081019091526001600160a01b03871660c08201526000908060e081016040516020818303038152906040528152602001876040516020016101d391815260200190565b60408051601f198184030181529190528152602001600060405190808252806020026020018201604052801561022f57816020015b60408051808201909152600080825260208201528152602001906001900390816102085790505b5081526003546001600160a01b0316602080830191909152604080518083018252899052805160248082018b9052825180830390910181526044909101825291820180516001600160e01b03166397a657c960e01b17905290910152600480546040516320487ded60e01b81529293506001600160a01b03169160009183916320487ded916102c2918e91889101610a7a565b602060405180830381865afa1580156102df573d6000803e3d6000fd5b505050506040513d601f19601f820116820180604052508101906103039190610b54565b60035490915061031e906001600160a01b03163330846105c2565b60035460405163095ea7b360e01b81526001600160a01b038481166004830152602482018490529091169063095ea7b3906044016020604051808303816000875af1158015610371573d6000803e3d6000fd5b505050506040513d601f19601f820116820180604052508101906103959190610b6d565b506040516396f4e9f960e01b81526001600160a01b038316906396f4e9f9906103c4908d908790600401610a7a565b6020604051808303816000875af11580156103e3573d6000803e3d6000fd5b505050506040513d601f19601f820116820180604052508101906104079190610b54565b600354604080516001600160a01b03808e168252602082018d9052909216908201526060810183905290965067ffffffffffffffff8b169087907feea8a479f07983d1364c4330c9bf3442a1cd421b79b16909bcc1867188ea676b9060800160405180910390a35050505050949350505050565b6001546001600160a01b031633146104ce5760405162461bcd60e51b815260206004820152601660248201527526bab9ba10313290383937b837b9b2b21037bbb732b960511b6044820152606401610159565b60008054336001600160a01b0319808316821784556001805490911690556040516001600160a01b0390921692909183917f8be0079c531659141344cd1fd0a4f28419497f9722a3daafe3b4186f6b6457e091a350565b61052d61056d565b67ffffffffffffffff919091166000908152600260205260409020805460ff1916911515919091179055565b61056161056d565b61056a81610622565b50565b6000546001600160a01b031633146105c05760405162461bcd60e51b815260206004820152601660248201527527b7363c9031b0b63630b1363290313c9037bbb732b960511b6044820152606401610159565b565b604080516001600160a01b0385811660248301528416604482015260648082018490528251808303909101815260849091019091526020810180516001600160e01b03166323b872dd60e01b17905261061c9085906106cb565b50505050565b336001600160a01b0382160361067a5760405162461bcd60e51b815260206004820152601760248201527f43616e6e6f74207472616e7366657220746f2073656c660000000000000000006044820152606401610159565b600180546001600160a01b0319166001600160a01b0383811691821790925560008054604051929316917fed8889f560326eb138920d842192f0eb3dd22b4f139c87a2c57538e05bae12789190a350565b6000610720826040518060400160405280602081526020017f5361666545524332303a206c6f772d6c6576656c2063616c6c206661696c6564815250856001600160a01b03166107a29092919063ffffffff16565b80519091501561079d578080602001905181019061073e9190610b6d565b61079d5760405162461bcd60e51b815260206004820152602a60248201527f5361666545524332303a204552433230206f7065726174696f6e20646964206e6044820152691bdd081cdd58d8d9595960b21b6064820152608401610159565b505050565b60606107b184846000856107b9565b949350505050565b60608247101561081a5760405162461bcd60e51b815260206004820152602660248201527f416464726573733a20696e73756666696369656e742062616c616e636520666f6044820152651c8818d85b1b60d21b6064820152608401610159565b600080866001600160a01b031685876040516108369190610b8a565b60006040518083038185875af1925050503d8060008114610873576040519150601f19603f3d011682016040523d82523d6000602084013e610878565b606091505b509150915061088987838387610894565b979650505050505050565b606083156109035782516000036108fc576001600160a01b0385163b6108fc5760405162461bcd60e51b815260206004820152601d60248201527f416464726573733a2063616c6c20746f206e6f6e2d636f6e74726163740000006044820152606401610159565b50816107b1565b6107b183838151156109185781518083602001fd5b8060405162461bcd60e51b81526004016101599190610ba6565b803567ffffffffffffffff8116811461094a57600080fd5b919050565b80356001600160a01b038116811461094a57600080fd5b6000806000806080858703121561097c57600080fd5b61098585610932565b93506109936020860161094f565b93969395505050506040820135916060013590565b6000602082840312156109ba57600080fd5b6109c382610932565b9392505050565b801515811461056a57600080fd5b600080604083850312156109eb57600080fd5b6109f483610932565b91506020830135610a04816109ca565b809150509250929050565b600060208284031215610a2157600080fd5b6109c38261094f565b60005b83811015610a45578181015183820152602001610a2d565b50506000910152565b60008151808452610a66816020860160208601610a2a565b601f01601f19169290920160200192915050565b6000604067ffffffffffffffff8516835260208181850152845160a083860152610aa760e0860182610a4e565b905081860151603f1980878403016060880152610ac48383610a4e565b88860151888203830160808a01528051808352908601945060009350908501905b80841015610b1757845180516001600160a01b0316835286015186830152938501936001939093019290860190610ae5565b5060608901516001600160a01b031660a08901526080890151888203830160c08a01529550610b468187610a4e565b9a9950505050505050505050565b600060208284031215610b6657600080fd5b5051919050565b600060208284031215610b7f57600080fd5b81516109c3816109ca565b60008251610b9c818460208701610a2a565b9190910192915050565b6020815260006109c36020830184610a4e56fea264697066735822122068007a60b044fbbee8978976ab1cf7e5355fab08d2305425f46abd3d721148a964736f6c63430008130033","linkReferences":{}},"methodIdentifiers":{"acceptOwnership()":"79ba5097","allowlistDestinationChain(uint64,bool)":"96d3b83d","allowlistedDestinationChains(uint64)":"75c67c66","owner()":"8da5cb5b","sendMessagePayLINK(uint64,address,uint256,uint256)":"7361d661","transferOwnership(address)":"f2fde38b"},"id":50}