{"abi":[{"type":"constructor","inputs":[{"name":"router","type":"address","internalType":"address"}],"stateMutability":"nonpayable"},{"type":"function","name":"acceptOwnership","inputs":[],"outputs":[],"stateMutability":"nonpayable"},{"type":"function","name":"allowlistSender","inputs":[{"name":"_sender","type":"address","internalType":"address"},{"name":"allowed","type":"bool","internalType":"bool"}],"outputs":[],"stateMutability":"nonpayable"},{"type":"function","name":"allowlistSourceChain","inputs":[{"name":"_sourceChainSelector","type":"uint64","internalType":"uint64"},{"name":"allowed","type":"bool","internalType":"bool"}],"outputs":[],"stateMutability":"nonpayable"},{"type":"function","name":"allowlistedSenders","inputs":[{"name":"","type":"address","internalType":"address"}],"outputs":[{"name":"","type":"bool","internalType":"bool"}],"stateMutability":"view"},{"type":"function","name":"allowlistedSourceChains","inputs":[{"name":"","type":"uint64","internalType":"uint64"}],"outputs":[{"name":"","type":"bool","internalType":"bool"}],"stateMutability":"view"},{"type":"function","name":"ccipReceive","inputs":[{"name":"message","type":"tuple","internalType":"struct Client.Any2EVMMessage","components":[{"name":"messageId","type":"bytes32","internalType":"bytes32"},{"name":"sourceChainSelector","type":"uint64","internalType":"uint64"},{"name":"sender","type":"bytes","internalType":"bytes"},{"name":"data","type":"bytes","internalType":"bytes"},{"name":"destTokenAmounts","type":"tuple[]","internalType":"struct Client.EVMTokenAmount[]","components":[{"name":"token","type":"address","internalType":"address"},{"name":"amount","type":"uint256","internalType":"uint256"}]}]}],"outputs":[],"stateMutability":"nonpayable"},{"type":"function","name":"getRouter","inputs":[],"outputs":[{"name":"","type":"address","internalType":"address"}],"stateMutability":"view"},{"type":"function","name":"owner","inputs":[],"outputs":[{"name":"","type":"address","internalType":"address"}],"stateMutability":"view"},{"type":"function","name":"supportsInterface","inputs":[{"name":"interfaceId","type":"bytes4","internalType":"bytes4"}],"outputs":[{"name":"","type":"bool","internalType":"bool"}],"stateMutability":"pure"},{"type":"function","name":"transferOwnership","inputs":[{"name":"to","type":"address","internalType":"address"}],"outputs":[],"stateMutability":"nonpayable"},{"type":"event","name":"MessageReceived","inputs":[{"name":"messageId","type":"bytes32","indexed":true,"internalType":"bytes32"},{"name":"sourceChainSelector","type":"uint64","indexed":true,"internalType":"uint64"},{"name":"sender","type":"address","indexed":false,"internalType":"address"},{"name":"iterationsInput","type":"uint256","indexed":false,"internalType":"uint256"},{"name":"iterationsDone","type":"uint256","indexed":false,"internalType":"uint256"},{"name":"result","type":"uint256","indexed":false,"internalType":"uint256"}],"anonymous":false},{"type":"event","name":"OwnershipTransferRequested","inputs":[{"name":"from","type":"address","indexed":true,"internalType":"address"},{"name":"to","type":"address","indexed":true,"internalType":"address"}],"anonymous":false},{"type":"event","name":"OwnershipTransferred","inputs":[{"name":"from","type":"address","indexed":true,"internalType":"address"},{"name":"to","type":"address","indexed":true,"internalType":"address"}],"anonymous":false},{"type":"error","name":"InvalidRouter","inputs":[{"name":"router","type":"address","internalType":"address"}]},{"type":"error","name":"SenderNotAllowed","inputs":[{"name":"sender","type":"address","internalType":"address"}]},{"type":"error","name":"SourceChainNotAllowed","inputs":[{"name":"sourceChainSelector","type":"uint64","internalType":"uint64"}]}],"bytecode":{"object":"0x60a060405234801561001057600080fd5b50604051610b9c380380610b9c83398101604081905261002f916101a1565b33806000836001600160a01b038116610063576040516335fdcccd60e21b8152600060048201526024015b60405180910390fd5b6001600160a01b0390811660805282166100bf5760405162461bcd60e51b815260206004820152601860248201527f43616e6e6f7420736574206f776e657220746f207a65726f0000000000000000604482015260640161005a565b600080546001600160a01b0319166001600160a01b03848116919091179091558116156100ef576100ef816100f8565b505050506101d1565b336001600160a01b038216036101505760405162461bcd60e51b815260206004820152601760248201527f43616e6e6f74207472616e7366657220746f2073656c66000000000000000000604482015260640161005a565b600180546001600160a01b0319166001600160a01b0383811691821790925560008054604051929316917fed8889f560326eb138920d842192f0eb3dd22b4f139c87a2c57538e05bae12789190a350565b6000602082840312156101b357600080fd5b81516001600160a01b03811681146101ca57600080fd5b9392505050565b6080516109a96101f36000396000818161015501526102a301526109a96000f3fe608060405234801561001057600080fd5b506004361061009e5760003560e01c80638da5cb5b116100665780638da5cb5b1461012e578063b0f479a114610153578063db04fa4914610179578063eab5b02c1461018c578063f2fde38b1461019f57600080fd5b806301ffc9a7146100a35780634030d521146100cb5780636159ada1146100ee57806379ba50971461011157806385572ffb1461011b575b600080fd5b6100b66100b1366004610545565b6101b2565b60405190151581526020015b60405180910390f35b6100b66100d9366004610593565b60026020526000908152604090205460ff1681565b6100b66100fc3660046105c3565b60036020526000908152604090205460ff1681565b6101196101e9565b005b6101196101293660046105e0565b610298565b6000546001600160a01b03165b6040516001600160a01b0390911681526020016100c2565b7f000000000000000000000000000000000000000000000000000000000000000061013b565b61011961018736600461062b565b6102f7565b61011961019a36600461065e565b61032b565b6101196101ad3660046105c3565b61035e565b60006001600160e01b031982166385572ffb60e01b14806101e357506001600160e01b031982166301ffc9a760e01b145b92915050565b6001546001600160a01b031633146102415760405162461bcd60e51b815260206004820152601660248201527526bab9ba10313290383937b837b9b2b21037bbb732b960511b60448201526064015b60405180910390fd5b60008054336001600160a01b0319808316821784556001805490911690556040516001600160a01b0390921692909183917f8be0079c531659141344cd1fd0a4f28419497f9722a3daafe3b4186f6b6457e091a350565b336001600160a01b037f000000000000000000000000000000000000000000000000000000000000000016146102e3576040516335fdcccd60e21b8152336004820152602401610238565b6102f46102ef8261082c565b61036f565b50565b6102ff610447565b67ffffffffffffffff919091166000908152600260205260409020805460ff1916911515919091179055565b610333610447565b6001600160a01b03919091166000908152600360205260409020805460ff1916911515919091179055565b610366610447565b6102f48161049c565b6000816060015180602001905181019061038991906108d9565b90508060006103996064836108f2565b905060005b818110156103c4576103b0818461092a565b9250806103bc8161093d565b91505061039e565b50836020015167ffffffffffffffff1684600001517f2fdca6724503823c2fdee314a2357f6789760842e990f94aa8dc21d16ac41ff786604001518060200190518101906104129190610956565b604080516001600160a01b0390921682526020820188905281018590526060810186905260800160405180910390a350505050565b6000546001600160a01b0316331461049a5760405162461bcd60e51b815260206004820152601660248201527527b7363c9031b0b63630b1363290313c9037bbb732b960511b6044820152606401610238565b565b336001600160a01b038216036104f45760405162461bcd60e51b815260206004820152601760248201527f43616e6e6f74207472616e7366657220746f2073656c660000000000000000006044820152606401610238565b600180546001600160a01b0319166001600160a01b0383811691821790925560008054604051929316917fed8889f560326eb138920d842192f0eb3dd22b4f139c87a2c57538e05bae12789190a350565b60006020828403121561055757600080fd5b81356001600160e01b03198116811461056f57600080fd5b9392505050565b803567ffffffffffffffff8116811461058e57600080fd5b919050565b6000602082840312156105a557600080fd5b61056f82610576565b6001600160a01b03811681146102f457600080fd5b6000602082840312156105d557600080fd5b813561056f816105ae565b6000602082840312156105f257600080fd5b813567ffffffffffffffff81111561060957600080fd5b820160a0818503121561056f57600080fd5b8035801515811461058e57600080fd5b6000806040838503121561063e57600080fd5b61064783610576565b91506106556020840161061b565b90509250929050565b6000806040838503121561067157600080fd5b8235610647816105ae565b634e487b7160e01b600052604160045260246000fd5b6040805190810167ffffffffffffffff811182821017156106b5576106b561067c565b60405290565b60405160a0810167ffffffffffffffff811182821017156106b5576106b561067c565b604051601f8201601f1916810167ffffffffffffffff811182821017156107075761070761067c565b604052919050565b600082601f83011261072057600080fd5b813567ffffffffffffffff81111561073a5761073a61067c565b61074d601f8201601f19166020016106de565b81815284602083860101111561076257600080fd5b816020850160208301376000918101602001919091529392505050565b600082601f83011261079057600080fd5b8135602067ffffffffffffffff8211156107ac576107ac61067c565b6107ba818360051b016106de565b82815260069290921b840181019181810190868411156107d957600080fd5b8286015b8481101561082157604081890312156107f65760008081fd5b6107fe610692565b8135610809816105ae565b815281850135858201528352918301916040016107dd565b509695505050505050565b600060a0823603121561083e57600080fd5b6108466106bb565b8235815261085660208401610576565b6020820152604083013567ffffffffffffffff8082111561087657600080fd5b6108823683870161070f565b6040840152606085013591508082111561089b57600080fd5b6108a73683870161070f565b606084015260808501359150808211156108c057600080fd5b506108cd3682860161077f565b60808301525092915050565b6000602082840312156108eb57600080fd5b5051919050565b60008261090f57634e487b7160e01b600052601260045260246000fd5b500690565b634e487b7160e01b600052601160045260246000fd5b808201808211156101e3576101e3610914565b60006001820161094f5761094f610914565b5060010190565b60006020828403121561096857600080fd5b815161056f816105ae56fea26469706673582212204d849783495c20ead53d969e8bd2ed70f6714894c62733e658e9134f7922a04a64736f6c63430008130033","linkReferences":{}},"methodIdentifiers":{"acceptOwnership()":"79ba5097","allowlistSender(address,bool)":"eab5b02c","allowlistSourceChain(uint64,bool)":"db04fa49","allowlistedSenders(address)":"6159ada1","allowlistedSourceChains(uint64)":"4030d521","ccipReceive((bytes32,uint64,bytes,bytes,(address,uint256)[]))":"85572ffb","getRouter()":"b0f479a1","owner()":"8da5cb5b","supportsInterface(bytes4)":"01ffc9a7","transferOwnership(address)":"f2fde38b"},"id":49}